{
  "_format": "hh-sol-artifact-1",
  "contractName": "GoerliEtherMarket",
  "sourceName": "contracts/GoerliEtherMarket.sol",
  "abi": [
    {
      "inputs": [],
      "stateMutability": "nonpayable",
      "type": "constructor"
    },
    {
      "anonymous": false,
      "inputs": [
        {
          "indexed": true,
          "internalType": "address",
          "name": "donor",
          "type": "address"
        },
        {
          "indexed": false,
          "internalType": "uint256",
          "name": "amount",
          "type": "uint256"
        }
      ],
      "name": "DonatedEther",
      "type": "event"
    },
    {
      "anonymous": false,
      "inputs": [
        {
          "indexed": true,
          "internalType": "address",
          "name": "receiver",
          "type": "address"
        },
        {
          "indexed": false,
          "internalType": "uint256",
          "name": "amount",
          "type": "uint256"
        }
      ],
      "name": "ReceivedEther",
      "type": "event"
    },
    {
      "inputs": [],
      "name": "donateEther",
      "outputs": [],
      "stateMutability": "payable",
      "type": "function"
    },
    {
      "inputs": [],
      "name": "getBalance",
      "outputs": [
        {
          "internalType": "uint256",
          "name": "",
          "type": "uint256"
        }
      ],
      "stateMutability": "view",
      "type": "function"
    },
    {
      "inputs": [],
      "name": "getDonate",
      "outputs": [
        {
          "components": [
            {
              "internalType": "address",
              "name": "donor",
              "type": "address"
            },
            {
              "internalType": "uint256",
              "name": "totalAmountDonated",
              "type": "uint256"
            }
          ],
          "internalType": "struct GoerliEtherMarket.Donate",
          "name": "",
          "type": "tuple"
        }
      ],
      "stateMutability": "view",
      "type": "function"
    },
    {
      "inputs": [],
      "name": "getPayment",
      "outputs": [
        {
          "components": [
            {
              "internalType": "address",
              "name": "receiver",
              "type": "address"
            },
            {
              "internalType": "uint256",
              "name": "date",
              "type": "uint256"
            },
            {
              "internalType": "uint256",
              "name": "totalReceivedAmount",
              "type": "uint256"
            }
          ],
          "internalType": "struct GoerliEtherMarket.Payment",
          "name": "",
          "type": "tuple"
        }
      ],
      "stateMutability": "view",
      "type": "function"
    },
    {
      "inputs": [],
      "name": "getReceivableAmount",
      "outputs": [
        {
          "internalType": "uint256",
          "name": "",
          "type": "uint256"
        }
      ],
      "stateMutability": "view",
      "type": "function"
    },
    {
      "inputs": [],
      "name": "receiveEther",
      "outputs": [],
      "stateMutability": "nonpayable",
      "type": "function"
    },
    {
      "inputs": [
        {
          "internalType": "uint256",
          "name": "minEthBalance_",
          "type": "uint256"
        }
      ],
      "name": "setMinimumBalanceToWithdraw",
      "outputs": [],
      "stateMutability": "nonpayable",
      "type": "function"
    },
    {
      "inputs": [
        {
          "internalType": "uint256",
          "name": "amount_",
          "type": "uint256"
        }
      ],
      "name": "setReceivableEtherAmount",
      "outputs": [],
      "stateMutability": "nonpayable",
      "type": "function"
    }
  ],
  "bytecode": "0x608060405234801561001057600080fd5b50336000806101000a81548173ffffffffffffffffffffffffffffffffffffffff021916908373ffffffffffffffffffffffffffffffffffffffff16021790555061103c806100606000396000f3fe60806040526004361061007b5760003560e01c80639ec3c8e91161004e5780639ec3c8e914610109578063a3912ec814610134578063bb328a7d1461014b578063f88b2e2e146101765761007b565b806312065fe0146100805780632c80094f146100ab5780635e1dc638146100d4578063863451dd146100ff575b600080fd5b34801561008c57600080fd5b5061009561019f565b6040516100a29190610b04565b60405180910390f35b3480156100b757600080fd5b506100d260048036038101906100cd9190610b50565b6101a9565b005b3480156100e057600080fd5b506100e9610241565b6040516100f69190610b04565b60405180910390f35b610107610256565b005b34801561011557600080fd5b5061011e610478565b60405161012b9190610bfc565b60405180910390f35b34801561014057600080fd5b5061014961052f565b005b34801561015757600080fd5b5061016061092b565b60405161016d9190610c59565b60405180910390f35b34801561018257600080fd5b5061019d60048036038101906101989190610b50565b6109ec565b005b6000600254905090565b60008054906101000a900473ffffffffffffffffffffffffffffffffffffffff1673ffffffffffffffffffffffffffffffffffffffff163373ffffffffffffffffffffffffffffffffffffffff1614610237576040517f08c379a000000000000000000000000000000000000000000000000000000000815260040161022e90610cd1565b60405180910390fd5b8060038190555050565b6000600180546102519190610d20565b905090565b600073ffffffffffffffffffffffffffffffffffffffff16600560003373ffffffffffffffffffffffffffffffffffffffff1673ffffffffffffffffffffffffffffffffffffffff16815260200190815260200160002060000160009054906101000a900473ffffffffffffffffffffffffffffffffffffffff1673ffffffffffffffffffffffffffffffffffffffff16036103b557600060405180604001604052803373ffffffffffffffffffffffffffffffffffffffff16815260200134815250905080600560003373ffffffffffffffffffffffffffffffffffffffff1673ffffffffffffffffffffffffffffffffffffffff16815260200190815260200160002060008201518160000160006101000a81548173ffffffffffffffffffffffffffffffffffffffff021916908373ffffffffffffffffffffffffffffffffffffffff160217905550602082015181600101559050505061040f565b34600560003373ffffffffffffffffffffffffffffffffffffffff1673ffffffffffffffffffffffffffffffffffffffff16815260200190815260200160002060010160008282546104079190610d62565b925050819055505b34600260008282546104219190610d62565b925050819055503373ffffffffffffffffffffffffffffffffffffffff167f8ccc8c12c3fc9f3fb60553a798bcb64c57d026ad21031d205fc19ddfc0ebdef43460405161046e9190610b04565b60405180910390a2565b610480610a84565b600560003373ffffffffffffffffffffffffffffffffffffffff1673ffffffffffffffffffffffffffffffffffffffff1681526020019081526020016000206040518060400160405290816000820160009054906101000a900473ffffffffffffffffffffffffffffffffffffffff1673ffffffffffffffffffffffffffffffffffffffff1673ffffffffffffffffffffffffffffffffffffffff168152602001600182015481525050905090565b670de0b6b3a76400006003546105459190610d20565b60025411610588576040517f08c379a000000000000000000000000000000000000000000000000000000000815260040161057f90610e2e565b60405180910390fd5b6000600154036105cd576040517f08c379a00000000000000000000000000000000000000000000000000000000081526004016105c490610e9a565b60405180910390fd5b6000600154670de0b6b3a76400006105e59190610ee9565b9050600073ffffffffffffffffffffffffffffffffffffffff16600460003373ffffffffffffffffffffffffffffffffffffffff1673ffffffffffffffffffffffffffffffffffffffff16815260200190815260200160002060000160009054906101000a900473ffffffffffffffffffffffffffffffffffffffff1673ffffffffffffffffffffffffffffffffffffffff16036107b657600060405180606001604052803373ffffffffffffffffffffffffffffffffffffffff16815260200142815260200183815250905080600460003373ffffffffffffffffffffffffffffffffffffffff1673ffffffffffffffffffffffffffffffffffffffff16815260200190815260200160002060008201518160000160006101000a81548173ffffffffffffffffffffffffffffffffffffffff021916908373ffffffffffffffffffffffffffffffffffffffff160217905550602082015181600101556040820151816002015590505081600260008282546107629190610f1a565b925050819055503373ffffffffffffffffffffffffffffffffffffffff166108fc839081150290604051600060405180830381858888f193505050501580156107af573d6000803e3d6000fd5b50506108da565b6000600460003373ffffffffffffffffffffffffffffffffffffffff1673ffffffffffffffffffffffffffffffffffffffff168152602001908152602001600020905060006201518082600101544261080f9190610f1a565b1090508015610853576040517f08c379a000000000000000000000000000000000000000000000000000000000815260040161084a90610fe6565b60405180910390fd5b428260010181905550826002600082825461086e9190610f1a565b92505081905550828260020160008282546108899190610d62565b925050819055503373ffffffffffffffffffffffffffffffffffffffff166108fc849081150290604051600060405180830381858888f193505050501580156108d6573d6000803e3d6000fd5b5050505b3373ffffffffffffffffffffffffffffffffffffffff167fa419615bc8fda4c87663805ee2a3597a6d71c1d476911d9892f340d965bc7bf1826040516109209190610b04565b60405180910390a250565b610933610ab4565b600460003373ffffffffffffffffffffffffffffffffffffffff1673ffffffffffffffffffffffffffffffffffffffff1681526020019081526020016000206040518060600160405290816000820160009054906101000a900473ffffffffffffffffffffffffffffffffffffffff1673ffffffffffffffffffffffffffffffffffffffff1673ffffffffffffffffffffffffffffffffffffffff16815260200160018201548152602001600282015481525050905090565b60008054906101000a900473ffffffffffffffffffffffffffffffffffffffff1673ffffffffffffffffffffffffffffffffffffffff163373ffffffffffffffffffffffffffffffffffffffff1614610a7a576040517f08c379a0000000000000000000000000000000000000000000000000000000008152600401610a7190610cd1565b60405180910390fd5b8060018190555050565b6040518060400160405280600073ffffffffffffffffffffffffffffffffffffffff168152602001600081525090565b6040518060600160405280600073ffffffffffffffffffffffffffffffffffffffff16815260200160008152602001600081525090565b6000819050919050565b610afe81610aeb565b82525050565b6000602082019050610b196000830184610af5565b92915050565b600080fd5b610b2d81610aeb565b8114610b3857600080fd5b50565b600081359050610b4a81610b24565b92915050565b600060208284031215610b6657610b65610b1f565b5b6000610b7484828501610b3b565b91505092915050565b600073ffffffffffffffffffffffffffffffffffffffff82169050919050565b6000610ba882610b7d565b9050919050565b610bb881610b9d565b82525050565b610bc781610aeb565b82525050565b604082016000820151610be36000850182610baf565b506020820151610bf66020850182610bbe565b50505050565b6000604082019050610c116000830184610bcd565b92915050565b606082016000820151610c2d6000850182610baf565b506020820151610c406020850182610bbe565b506040820151610c536040850182610bbe565b50505050565b6000606082019050610c6e6000830184610c17565b92915050565b600082825260208201905092915050565b7f4f6e6c79206f776e65722063616e2063616c6c2074686973206d6574686f642e600082015250565b6000610cbb602083610c74565b9150610cc682610c85565b602082019050919050565b60006020820190508181036000830152610cea81610cae565b9050919050565b7f4e487b7100000000000000000000000000000000000000000000000000000000600052601160045260246000fd5b6000610d2b82610aeb565b9150610d3683610aeb565b9250828202610d4481610aeb565b91508282048414831517610d5b57610d5a610cf1565b5b5092915050565b6000610d6d82610aeb565b9150610d7883610aeb565b9250828201905080821115610d9057610d8f610cf1565b5b92915050565b7f546f20726563656976652065746865722062616c616e6365206d75737420626560008201527f2067726561746572207468616e206d696e696d756d2062616c616e636520746f60208201527f2077697468647261770000000000000000000000000000000000000000000000604082015250565b6000610e18604983610c74565b9150610e2382610d96565b606082019050919050565b60006020820190508181036000830152610e4781610e0b565b9050919050565b7f526563656961626c6520616d6f756e74206d7573742062652073657400000000600082015250565b6000610e84601c83610c74565b9150610e8f82610e4e565b602082019050919050565b60006020820190508181036000830152610eb381610e77565b9050919050565b7f4e487b7100000000000000000000000000000000000000000000000000000000600052601260045260246000fd5b6000610ef482610aeb565b9150610eff83610aeb565b925082610f0f57610f0e610eba565b5b828204905092915050565b6000610f2582610aeb565b9150610f3083610aeb565b9250828203905081811115610f4857610f47610cf1565b5b92915050565b7f44756520746f206c696d69746564207265736f75726365732c2052455155455360008201527f545320746f20476f65726c69206e6574776f726b20617265206c696d6974656460208201527f20746f204f4e43452041204441592e0000000000000000000000000000000000604082015250565b6000610fd0604f83610c74565b9150610fdb82610f4e565b606082019050919050565b60006020820190508181036000830152610fff81610fc3565b905091905056fea26469706673582212206058e61bee5b7571e3624d384685c70ecec97a868ee22682fb4b4a425de1c7ad64736f6c63430008110033",
  "linkReferences": {},
  "deployedLinkReferences": {}
}