{
  "_format": "hh-sol-artifact-1",
  "contractName": "GoerliEtherMarket",
  "sourceName": "contracts/GoerliEtherMarket.sol",
  "abi": [
    {
      "inputs": [],
      "stateMutability": "nonpayable",
      "type": "constructor"
    },
    {
      "anonymous": false,
      "inputs": [
        {
          "indexed": true,
          "internalType": "address",
          "name": "donor",
          "type": "address"
        },
        {
          "indexed": false,
          "internalType": "uint256",
          "name": "amount",
          "type": "uint256"
        }
      ],
      "name": "DonatedEther",
      "type": "event"
    },
    {
      "anonymous": false,
      "inputs": [
        {
          "indexed": true,
          "internalType": "address",
          "name": "receiver",
          "type": "address"
        },
        {
          "indexed": false,
          "internalType": "uint256",
          "name": "amount",
          "type": "uint256"
        }
      ],
      "name": "ReceivedEther",
      "type": "event"
    },
    {
      "inputs": [],
      "name": "donateEther",
      "outputs": [],
      "stateMutability": "payable",
      "type": "function"
    },
    {
      "inputs": [],
      "name": "getBalance",
      "outputs": [
        {
          "internalType": "uint256",
          "name": "",
          "type": "uint256"
        }
      ],
      "stateMutability": "view",
      "type": "function"
    },
    {
      "inputs": [],
      "name": "getDonate",
      "outputs": [
        {
          "components": [
            {
              "internalType": "address",
              "name": "donor",
              "type": "address"
            },
            {
              "internalType": "uint256",
              "name": "totalAmountDonated",
              "type": "uint256"
            }
          ],
          "internalType": "struct GoerliEtherMarket.Donate",
          "name": "",
          "type": "tuple"
        }
      ],
      "stateMutability": "view",
      "type": "function"
    },
    {
      "inputs": [],
      "name": "getPayment",
      "outputs": [
        {
          "components": [
            {
              "internalType": "address",
              "name": "receiver",
              "type": "address"
            },
            {
              "internalType": "uint256",
              "name": "date",
              "type": "uint256"
            },
            {
              "internalType": "uint256",
              "name": "totalReceivedAmount",
              "type": "uint256"
            }
          ],
          "internalType": "struct GoerliEtherMarket.Payment",
          "name": "",
          "type": "tuple"
        }
      ],
      "stateMutability": "view",
      "type": "function"
    },
    {
      "inputs": [],
      "name": "getReceivableAmount",
      "outputs": [
        {
          "internalType": "uint256",
          "name": "",
          "type": "uint256"
        }
      ],
      "stateMutability": "view",
      "type": "function"
    },
    {
      "inputs": [],
      "name": "receiveEther",
      "outputs": [],
      "stateMutability": "nonpayable",
      "type": "function"
    },
    {
      "inputs": [
        {
          "internalType": "uint256",
          "name": "amount_",
          "type": "uint256"
        }
      ],
      "name": "setReceivableEtherAmount",
      "outputs": [],
      "stateMutability": "nonpayable",
      "type": "function"
    }
  ],
  "bytecode": "0x608060405234801561001057600080fd5b50336000806101000a81548173ffffffffffffffffffffffffffffffffffffffff021916908373ffffffffffffffffffffffffffffffffffffffff160217905550610f3d806100606000396000f3fe6080604052600436106100705760003560e01c80639ec3c8e91161004e5780639ec3c8e9146100d5578063a3912ec814610100578063bb328a7d14610117578063f88b2e2e1461014257610070565b806312065fe0146100755780635e1dc638146100a0578063863451dd146100cb575b600080fd5b34801561008157600080fd5b5061008a61016b565b6040516100979190610a2b565b60405180910390f35b3480156100ac57600080fd5b506100b5610175565b6040516100c29190610a2b565b60405180910390f35b6100d361018a565b005b3480156100e157600080fd5b506100ea6103ac565b6040516100f79190610ac5565b60405180910390f35b34801561010c57600080fd5b50610115610463565b005b34801561012357600080fd5b5061012c610852565b6040516101399190610b22565b60405180910390f35b34801561014e57600080fd5b5061016960048036038101906101649190610b6e565b610913565b005b6000600254905090565b6000600180546101859190610bca565b905090565b600073ffffffffffffffffffffffffffffffffffffffff16600460003373ffffffffffffffffffffffffffffffffffffffff1673ffffffffffffffffffffffffffffffffffffffff16815260200190815260200160002060000160009054906101000a900473ffffffffffffffffffffffffffffffffffffffff1673ffffffffffffffffffffffffffffffffffffffff16036102e957600060405180604001604052803373ffffffffffffffffffffffffffffffffffffffff16815260200134815250905080600460003373ffffffffffffffffffffffffffffffffffffffff1673ffffffffffffffffffffffffffffffffffffffff16815260200190815260200160002060008201518160000160006101000a81548173ffffffffffffffffffffffffffffffffffffffff021916908373ffffffffffffffffffffffffffffffffffffffff1602179055506020820151816001015590505050610343565b34600460003373ffffffffffffffffffffffffffffffffffffffff1673ffffffffffffffffffffffffffffffffffffffff168152602001908152602001600020600101600082825461033b9190610c0c565b925050819055505b34600260008282546103559190610c0c565b925050819055503373ffffffffffffffffffffffffffffffffffffffff167f8ccc8c12c3fc9f3fb60553a798bcb64c57d026ad21031d205fc19ddfc0ebdef4346040516103a29190610a2b565b60405180910390a2565b6103b46109ab565b600460003373ffffffffffffffffffffffffffffffffffffffff1673ffffffffffffffffffffffffffffffffffffffff1681526020019081526020016000206040518060400160405290816000820160009054906101000a900473ffffffffffffffffffffffffffffffffffffffff1673ffffffffffffffffffffffffffffffffffffffff1673ffffffffffffffffffffffffffffffffffffffff168152602001600182015481525050905090565b6706f05b59d3b20000600254116104af576040517f08c379a00000000000000000000000000000000000000000000000000000000081526004016104a690610cc3565b60405180910390fd5b6000600154036104f4576040517f08c379a00000000000000000000000000000000000000000000000000000000081526004016104eb90610d2f565b60405180910390fd5b6000600154670de0b6b3a764000061050c9190610d7e565b9050600073ffffffffffffffffffffffffffffffffffffffff16600360003373ffffffffffffffffffffffffffffffffffffffff1673ffffffffffffffffffffffffffffffffffffffff16815260200190815260200160002060000160009054906101000a900473ffffffffffffffffffffffffffffffffffffffff1673ffffffffffffffffffffffffffffffffffffffff16036106dd57600060405180606001604052803373ffffffffffffffffffffffffffffffffffffffff16815260200142815260200183815250905080600360003373ffffffffffffffffffffffffffffffffffffffff1673ffffffffffffffffffffffffffffffffffffffff16815260200190815260200160002060008201518160000160006101000a81548173ffffffffffffffffffffffffffffffffffffffff021916908373ffffffffffffffffffffffffffffffffffffffff160217905550602082015181600101556040820151816002015590505081600260008282546106899190610daf565b925050819055503373ffffffffffffffffffffffffffffffffffffffff166108fc839081150290604051600060405180830381858888f193505050501580156106d6573d6000803e3d6000fd5b5050610801565b6000600360003373ffffffffffffffffffffffffffffffffffffffff1673ffffffffffffffffffffffffffffffffffffffff16815260200190815260200160002090506000620151808260010154426107369190610daf565b109050801561077a576040517f08c379a000000000000000000000000000000000000000000000000000000000815260040161077190610e7b565b60405180910390fd5b42826001018190555082600260008282546107959190610daf565b92505081905550828260020160008282546107b09190610c0c565b925050819055503373ffffffffffffffffffffffffffffffffffffffff166108fc849081150290604051600060405180830381858888f193505050501580156107fd573d6000803e3d6000fd5b5050505b3373ffffffffffffffffffffffffffffffffffffffff167fa419615bc8fda4c87663805ee2a3597a6d71c1d476911d9892f340d965bc7bf1826040516108479190610a2b565b60405180910390a250565b61085a6109db565b600360003373ffffffffffffffffffffffffffffffffffffffff1673ffffffffffffffffffffffffffffffffffffffff1681526020019081526020016000206040518060600160405290816000820160009054906101000a900473ffffffffffffffffffffffffffffffffffffffff1673ffffffffffffffffffffffffffffffffffffffff1673ffffffffffffffffffffffffffffffffffffffff16815260200160018201548152602001600282015481525050905090565b60008054906101000a900473ffffffffffffffffffffffffffffffffffffffff1673ffffffffffffffffffffffffffffffffffffffff163373ffffffffffffffffffffffffffffffffffffffff16146109a1576040517f08c379a000000000000000000000000000000000000000000000000000000000815260040161099890610ee7565b60405180910390fd5b8060018190555050565b6040518060400160405280600073ffffffffffffffffffffffffffffffffffffffff168152602001600081525090565b6040518060600160405280600073ffffffffffffffffffffffffffffffffffffffff16815260200160008152602001600081525090565b6000819050919050565b610a2581610a12565b82525050565b6000602082019050610a406000830184610a1c565b92915050565b600073ffffffffffffffffffffffffffffffffffffffff82169050919050565b6000610a7182610a46565b9050919050565b610a8181610a66565b82525050565b610a9081610a12565b82525050565b604082016000820151610aac6000850182610a78565b506020820151610abf6020850182610a87565b50505050565b6000604082019050610ada6000830184610a96565b92915050565b606082016000820151610af66000850182610a78565b506020820151610b096020850182610a87565b506040820151610b1c6040850182610a87565b50505050565b6000606082019050610b376000830184610ae0565b92915050565b600080fd5b610b4b81610a12565b8114610b5657600080fd5b50565b600081359050610b6881610b42565b92915050565b600060208284031215610b8457610b83610b3d565b5b6000610b9284828501610b59565b91505092915050565b7f4e487b7100000000000000000000000000000000000000000000000000000000600052601160045260246000fd5b6000610bd582610a12565b9150610be083610a12565b9250828202610bee81610a12565b91508282048414831517610c0557610c04610b9b565b5b5092915050565b6000610c1782610a12565b9150610c2283610a12565b9250828201905080821115610c3a57610c39610b9b565b5b92915050565b600082825260208201905092915050565b7f546f20726563656976652065746865722062616c616e6365206d75737420626560008201527f2067726561746572207468616e20312065746865720000000000000000000000602082015250565b6000610cad603583610c40565b9150610cb882610c51565b604082019050919050565b60006020820190508181036000830152610cdc81610ca0565b9050919050565b7f526563656961626c6520616d6f756e74206d7573742062652073657400000000600082015250565b6000610d19601c83610c40565b9150610d2482610ce3565b602082019050919050565b60006020820190508181036000830152610d4881610d0c565b9050919050565b7f4e487b7100000000000000000000000000000000000000000000000000000000600052601260045260246000fd5b6000610d8982610a12565b9150610d9483610a12565b925082610da457610da3610d4f565b5b828204905092915050565b6000610dba82610a12565b9150610dc583610a12565b9250828203905081811115610ddd57610ddc610b9b565b5b92915050565b7f44756520746f206c696d69746564207265736f75726365732c2052455155455360008201527f545320746f20476f65726c69206e6574776f726b20617265206c696d6974656460208201527f20746f204f4e43452041204441592e0000000000000000000000000000000000604082015250565b6000610e65604f83610c40565b9150610e7082610de3565b606082019050919050565b60006020820190508181036000830152610e9481610e58565b9050919050565b7f4f6e6c79206f776e65722063616e2063616c6c2074686973206d6574686f642e600082015250565b6000610ed1602083610c40565b9150610edc82610e9b565b602082019050919050565b60006020820190508181036000830152610f0081610ec4565b905091905056fea2646970667358221220e286f51fc8815398bf95ab7951f940943d3aec4d9b01b6b8b62b3e465a285d5d64736f6c63430008110033",
  "linkReferences": {},
  "deployedLinkReferences": {}
}